:100000000C9434000C9449000C9449000C94490061
:100010000C9449000C9449000C9449000C9449003C
:100020000C9449000C9449000C9449000C9449002C
:100030000C9449000C9449000C9449000C9449001C
:100040000C9449000C9449000C9449000C9449000C
:100050000C9449000C9449000C9449000C944900FC
:100060000C9449000C94490011241FBECFEFD8E036
:10007000DEBFCDBF17E0A0E0B1E0E2E5FAE002C0EC
:1000800005900D92A033B107D9F70E94B8030C94E4
:1000900027050C940000813011F4599A08958823A3
:1000A00009F459980895CF92DF92EF92FF920F933F
:1000B0001F93DF93CF93CDB7DEB72A970FB6F8948F
:1000C000DEBF0FBECDBFFE0131969AE0DF011D926B
:1000D0009A95E9F791E09A87FE01329620E030E0A8
:1000E000482F50E0CA01022E02C0959587950A94C8
:1000F000E2F7817081932F5F3F4F2830310591F7F0
:100100008E010F5F1F4F90EDC92ED12C8BE0E82E92
:10011000F12CEC0EFD1EF80181918F010E944B0025
:10012000C6010197F1F70E151F05A9F780EA91E0C6
:100130000197F1F72A960FB6F894DEBF0FBECDBF38
:10014000CF91DF911F910F91FF90EF90DF90CF90B3
:1001500008958F929F92BF92CF92DF92EF92FF927B
:100160000F931F93DF93CF93CDB7DEB72A970FB6C8
:10017000F894DEBF0FBECDBFAC01CB01DA017C012C
:100180008D01BB244E010894811C911C19C0C80C20
:10019000D91CC801B7012AE030E040E050E00E94DD
:1001A0000505F6016083C801B7012AE030E040E0B0
:1001B00050E00E940505C901DA017C018D01B3946C
:1001C000CB2CDD24E114F1040105110501F78401B4
:1001D0000C0D1D1D05C0F8018081805D0E9453003B
:1001E000015010400C171D07B1F72A960FB6F8946E
:1001F000DEBF0FBECDBFCF91DF911F910F91FF905A
:10020000EF90DF90CF90BF909F908F9008950F93C5
:100210001F93982F519A82958F708A3018F0082F6B
:10022000095C02C0082F005D892F8F708A3018F09A
:10023000182F195C02C0182F105D80E30E94530034
:1002400088E70E945300802F0E945300812F0E9454
:10025000530051981F910F910895DF92EF92FF92F2
:100260000F931F937B018C01D42E519A20E030E034
:1002700040E050E00E94FD0388233CF417FB1095FA
:1002800017F910958DE20E945300C801B7010E9432
:1002900001040E94A90081E0D81679F5C801B701D0
:1002A0002AE939E148EC52E40E947A040E940104F0
:1002B0007B018C018EE20E945300B701C8012AE045
:1002C00030E040E050E00E940505CA01B9012AE093
:1002D00030E040E050E00E940505862F805D0E94DE
:1002E0005300B701C8012AE030E040E050E00E942E
:1002F0000505862F805D0E94530051981F910F9134
:10030000FF90EF90DF9008953D9A882311F445986F
:100310000895813009F4459A089584B18C6384B9B5
:100320002A982D9888EC90E0FC013197F1F72A9AF1
:100330000197F1F72A9883E58CBD08958EBD0DB421
:1003400007FEFDCF8EB50895FF920F931F9310E027
:100350002CEAF22E03E50E948D01FEBC0DB407FECF
:10036000FDCF8EB50EBD0DB407FEFDCF8EB51EBC04
:100370000DB407FEFDCF9EB51EBC0DB407FEFDCF2C
:100380008EB51F5F103119F0933529F703C080E057
:10039000933509F481E01F910F91FF900895982FF4
:1003A00080E38EBD0DB407FEFDCF8EB51EBC0DB42F
:1003B00007FEFDCF8EB59EBD0DB407FEFDCF8EB5F9
:1003C0001EBC0DB407FEFDCF8EB5089580E58EBD31
:1003D0000DB407FEFDCF8EB51EBC0DB407FEFDCFDC
:1003E0008EB51EBC0DB407FEFDCF8EB51EBC0DB480
:1003F00007FEFDCF8EB5089588E58EBD0DB407FECE
:10040000FDCF8EB588E08EBD0DB407FEFDCF8EB555
:100410001EBC0DB407FEFDCF8EB51EBC0DB407FE8D
:10042000FDCF8EB50895EAE7F0E080818F77808375
:1004300080B7806880BFE4E6F0E08FE08083808151
:10044000806E80838FEF84B915B887B918B88AB9E0
:100450001BB851985998089583B7817F846083BFF2
:1004600083B7816083BF85B7806685BF8F7D85BF79
:100470007894889583B78E7F83BF0895FF920F93FA
:100480001F93CF93DF938C01519AFF2406C0C00FB6
:10049000D11F88810E945300F394CF2DD0E0F80142
:1004A00001900020E9F73197E01BF10BCE17DF0731
:1004B00070F35198DF91CF911F910F91FF900895A4
:1004C0001F93CF93DF9382E00E94CF018F3019F406
:1004D00080E091E004C0843121F48CE191E00E943D
:1004E0003E020E94E60190E08F709070823091058C
:1004F00019F487E391E004C0039721F489E591E0C2
:100500000E943E020E94E601182FC82FD0E0CE01C3
:100510008073907044E0959587954A95E1F7009730
:1005200019F48DE791E00AC08130910519F489E949
:1005300091E004C0029721F487EB91E00E943E0213
:1005400017FD03C084ED91E002C082E092E00E94BA
:100550003E02C6FD03C081E392E002C08AE492E05D
:100560000E943E020E94FC01C82FD0E080FD03C023
:1005700084E692E002C08DE792E00E943E02CE0146
:100580008670907095958795009719F487E992E0A9
:100590000DC08130910519F480EC92E007C00297FC
:1005A00019F489EE92E002C080E193E00E943E02DD
:1005B000C3FD03C086E393E002C083E793E00E949B
:1005C0003E02C6FD03C08EEA93E002C087EC93E0D2
:1005D0000E943E02C4FD03C081EE93E002C08FE0A2
:1005E00094E00E943E0288E394E00E943E020E9452
:1005F000E6010E9407018DE494E00E943E020E9401
:10060000FC010E94070184E594E00E943E02DF9114
:10061000CF911F9108951F93CF93DF9387E594E0C7
:100620000E943E020E94E60190E08F70907081303F
:10063000910519F480E794E010C08230910519F417
:1006400082E994E00AC08330910519F484EB94E0C8
:1006500004C0049721F487E391E00E943E020E94C7
:10066000E601182FC82FD0E0CE018073907064E0AF
:10067000959587956A95E1F7009719F48DE791E0D4
:100680000AC08130910519F486ED94E004C0029708
:1006900021F482EF94E00E943E0217FD03C08FE038
:1006A00095E002C085E295E00E943E02C6FD03C0CF
:1006B0008BE395E002C084E595E00E943E020E9433
:1006C000FC01C82FD0E080FD03C084E692E002C0A8
:1006D0008DE792E00E943E02CE0186709070959563
:1006E0008795009719F480EC92E00DC08130910558
:1006F00019F48EE695E007C0029719F480E193E0C3
:1007000002C086E995E00E943E02C3FD03C086E375
:1007100093E002C083E793E00E943E02C4FD03C061
:100720008CEB95E002C08EEF95E00E943E02C6FD84
:1007300003C081EE93E002C08FE094E00E943E028D
:1007400088E394E00E943E020E94E6010E940701B5
:100750008DE494E00E943E020E94FC010E94070189
:1007600084E594E00E943E02DF91CF911F910895AD
:1007700080E197E228EC30E0F9013197F1F7019739
:10078000D9F782E496E00E943E0285E496E00E945A
:100790003E0289E896E00E943E0280EC96E00E94CC
:1007A0003E020E94A4018130A9F40E94840185E0E8
:1007B00097E00E943E0282E00E94CF01873019F448
:1007C0000E940B030BC08F3011F0843139F40E946A
:1007D000600204C089E197E00E943E0280E00E942E
:1007E000840180ED97E028EC30E0F9013197F1F7D2
:1007F0000197D9F70E942C02FDCF2FD008F481E099
:10080000089557D088F09F5790F0B92F9927B75186
:10081000A0F0D1F0660F771F881F991F1AF0BA95C4
:10082000C9F712C0B13081F05ED0B1E008955BC06D
:10083000672F782F8827B85F39F0B93FCCF38695BA
:1008400077956795B395D9F73EF490958095709517
:1008500061957F4F8F4F9F4F0895990F0008550F57
:10086000AA0BE0E8FEEF16161706E807F907C0F036
:1008700012161306E407F50798F0621B730B840B3E
:10088000950B39F40A2661F0232B242B252B21F418
:1008900008950A2609F4A140A6958FEF811D811DB8
:1008A000089557FD9058440F551F59F05F3F71F060
:1008B0004795880F97FB991F61F09F3F79F08795C7
:1008C0000895121613061406551FF2CF4695F1DF50
:1008D00008C0161617061806991FF1CF86957105E0
:1008E000610508940895E894BB2766277727CB0114
:1008F00097F908950BD078C069D028F06ED018F021
:10090000952309F05AC05FC01124EECFCADFA0F3CF
:10091000959FD1F3950F50E0551F629FF001729F94
:10092000BB27F00DB11D639FAA27F00DB11DAA1FB3
:10093000649F6627B00DA11D661F829F2227B00D00
:10094000A11D621F739FB00DA11D621F839FA00D8B
:10095000611D221F749F3327A00D611D231F849FDB
:10096000600D211D822F762F6A2F11249F57504032
:100970008AF0E1F088234AF0EE0FFF1FBB1F661FCD
:10098000771F881F91505040A9F79E3F510570F086
:1009900014C0AACF5F3FECF3983EDCF386957795C1
:1009A0006795B795F795E7959F5FC1F7FE2B880F81
:1009B000911D9695879597F9089597F99F6780E817
:1009C00070E060E008959FEF80EC089500240A94A1
:1009D0001616170618060906089500240A9412161A
:1009E0001306140605060895092E0394000C11F44D
:1009F000882352F0BB0F40F4BF2B11F460FF04C0FA
:100A00006F5F7F4F8F4F9F4F0895A1E21A2EAA1B51
:100A1000BB1BFD010DC0AA1FBB1FEE1FFF1FA217AE
:100A2000B307E407F50720F0A21BB30BE40BF50BAB
:100A3000661F771F881F991F1A9469F76095709534
:100A4000809590959B01AC01BD01CF010895F8946C
:020A5000FFCFD6
:100A520044657669636520494420202020203A209D
:100A620041546D656761333238700A0044657669B6
:100A7200636520494420202020203A2041546D659E
:100A820067613332380A00435055206672657175CA
:100A9200656E6379203A20496E7465726E616C20CE
:100AA200524320384D487A0A0043505520667265F9
:100AB2007175656E6379203A20496E7465726E6154
:100AC2006C205243203132386B487A0A00537461E9
:100AD20072742D75702074696D65203A203620433A
:100AE2004B2C2030206D730A0053746172742D7583
:100AF200702074696D65203A203620434B2C2034D7
:100B02002E31206D730A0053746172742D7570203A
:100B120074696D65203A203620434B2C20363520EF
:100B22006D730A00434B4449563820202020202070
:100B320020203A20456E61626C65642028436C6F08
:100B4200636B206469766964656420627920382960
:100B52000A00434B444956382020202020202020E0
:100B62003A2044697361626C65642028436C6F6348
:100B72006B20646976696465642062792031290A90
:100B820000436C6F636B206F757470757420203A2C
:100B920020456E61626C65640A00436C6F636B2072
:100BA2006F757470757420203A2044697361626CA9
:100BB20065640A00426F6F74205265736574202069
:100BC20020203A20456E61626C65640A00426F6FB4
:100BD20074205265736574202020203A2044697382
:100BE20061626C65640A00426F6F742053697A65B2
:100BF20020202020203A203230343820776F72644F
:100C020073202834303936206279746573290A00DA
:100C1200426F6F742053697A6520202020203A2089
:100C22003130323420776F72647320283230343896
:100C3200206279746573290A00426F6F74205369C8
:100C42007A6520202020203A2035313220776F72B9
:100C520064732831303234206279746573290A0052
:100C6200426F6F742053697A6520202020203A2039
:100C720032353620776F72647328353132206279CB
:100C8200746573290A0045455341564520202020AA
:100C9200202020203A20456E61626C656420284540
:100CA2004550524F4D2070726573657276656420AF
:100CB2007768656E20636869702065726173656428
:100CC200290A004545534156452020202020202056
:100CD200203A2044697361626C656420284545505E
:100CE200524F4D20657261736564207768656E208E
:100CF2006368697020657261736564290A004465DE
:100D02006275675769726520202020203A20456E5F
:100D120061626C65640A0044656275675769726551
:100D220020202020203A2044697361626C65640AA5
:100D3200005744544F4E2020202020202020203ACB
:100D420020456E61626C6564202857617463686433
:100D52006F6720616C77617973206F6E290A005783
:100D620044544F4E2020202020202020203A20646E
:100D7200697361626C656420285761746368646F8B
:100D820067206F6666290A000A4675736520426904
:100D9200747320202020203A204C465B005D2020E6
:100DA20048465B005D0A00446576696365204944F4
:100DB20020202020203A2041546D656761380A00C6
:100DC200435055206672657175656E6379203A20CD
:100DD200496E7465726E616C20524320314D487ABF
:100DE2000A00435055206672657175656E637920FD
:100DF2003A20496E7465726E616C20524320324D06
:100E0200487A0A00435055206672657175656E63B3
:100E120079203A20496E7465726E616C20524320CB
:100E2200344D487A0A0053746172742D75702074BF
:100E3200696D65203A203620434B2C2034206D7397
:100E42000A0053746172742D75702074696D652087
:100E52003A203620434B2C203634206D730A004250
:100E62004F44206C6576656C20202020203A203487
:100E72002E30760A00424F44206C6576656C202045
:100E82002020203A20322E37760A00424F44207327
:100E92007461747573202020203A20456E61626C63
:100EA20065640A00424F4420737461747573202094
:100EB20020203A2044697361626C65640A00426FC3
:100EC2006F742053697A6520202020203A20353122
:100ED2003220776F72647320283130323420627985
:100EE200746573290A00426F6F742053697A652012
:100EF200202020203A2031323820776F7264732804
:100F0200323536206279746573290A00434B4F509B
:100F1200542020202020202020203A20456E61628B
:100F22006C656420284F7363696C6C61746F722006
:100F32006F7074696F6E2C204869676820706F77D4
:100F42006572207377696E67206F6E290A00434BC2
:100F52004F50542020202020202020203A20446975
:100F62007361626C656420284F7363696C6C617491
:100F72006F72206F7074696F6E2C204869676820E9
:100F8200706F776572207377696E67206F66662966
:100F92000A000A0A002D2D2D2D2D2D2D2D2D2D2D42
:100FA2002D2D2D2D2D2D2D2D2D2D2D2D2D2D2D2D6F
:100FB2002D2D2D2D2D2D2D2D2D2D2D2D2D2D2D2D5F
:100FC2002D2D2D2D2D2D2D2D2D2D2D2D2D2D2D2D4F
:100FD2002D2D2D2D2D2D2D0A0020202020202020EA
:100FE20020202020202020202020415652207374CF
:100FF200616E64616C6F6E652070726F6772616D95
:101002006D657220262064656275676765720A00E5
:101012002D2D2D2D2D2D2D2D2D2D2D2D2D2D2D2DFE
:101022002D2D2D2D2D2D2D2D2D2D2D2D2D2D2D2DEE
:101032002D2D2D2D2D2D2D2D2D2D2D2D2D2D2D2DDE
:101042002D2D2D2D2D2D2D2D2D2D2D2D2D2D2D2DCE
:101052002D2D0A0A00446576696365202020202030
:101062002020203A204F4B0A0044657669636520B0
:10107200202020202020203A204572726F720A0020
:00000001FF
